{
  "contractName": "Donation",
  "abi": [
    {
      "inputs": [
        {
          "internalType": "address",
          "name": "_projectContractAddress",
          "type": "address"
        }
      ],
      "stateMutability": "nonpayable",
      "type": "constructor"
    },
    {
      "anonymous": false,
      "inputs": [
        {
          "indexed": true,
          "internalType": "uint256",
          "name": "projectId",
          "type": "uint256"
        },
        {
          "indexed": true,
          "internalType": "address",
          "name": "donor",
          "type": "address"
        },
        {
          "indexed": false,
          "internalType": "uint256",
          "name": "amount",
          "type": "uint256"
        },
        {
          "indexed": false,
          "internalType": "uint256",
          "name": "newTotal",
          "type": "uint256"
        }
      ],
      "name": "DonationReceived",
      "type": "event"
    },
    {
      "anonymous": false,
      "inputs": [
        {
          "indexed": true,
          "internalType": "uint256",
          "name": "projectId",
          "type": "uint256"
        },
        {
          "indexed": true,
          "internalType": "address",
          "name": "donor",
          "type": "address"
        },
        {
          "indexed": false,
          "internalType": "uint256",
          "name": "amount",
          "type": "uint256"
        }
      ],
      "name": "DonorRefunded",
      "type": "event"
    },
    {
      "anonymous": false,
      "inputs": [
        {
          "indexed": true,
          "internalType": "uint256",
          "name": "projectId",
          "type": "uint256"
        },
        {
          "indexed": true,
          "internalType": "address",
          "name": "recipient",
          "type": "address"
        },
        {
          "indexed": false,
          "internalType": "uint256",
          "name": "amount",
          "type": "uint256"
        }
      ],
      "name": "FundsWithdrawn",
      "type": "event"
    },
    {
      "anonymous": false,
      "inputs": [
        {
          "indexed": true,
          "internalType": "uint256",
          "name": "projectId",
          "type": "uint256"
        },
        {
          "indexed": false,
          "internalType": "uint256",
          "name": "totalRaised",
          "type": "uint256"
        }
      ],
      "name": "ProjectFunded",
      "type": "event"
    },
    {
      "stateMutability": "payable",
      "type": "fallback"
    },
    {
      "inputs": [],
      "name": "administrator",
      "outputs": [
        {
          "internalType": "address",
          "name": "",
          "type": "address"
        }
      ],
      "stateMutability": "view",
      "type": "function"
    },
    {
      "inputs": [
        {
          "internalType": "uint256",
          "name": "",
          "type": "uint256"
        },
        {
          "internalType": "address",
          "name": "",
          "type": "address"
        }
      ],
      "name": "donationsBy",
      "outputs": [
        {
          "internalType": "uint256",
          "name": "",
          "type": "uint256"
        }
      ],
      "stateMutability": "view",
      "type": "function"
    },
    {
      "inputs": [
        {
          "internalType": "uint256",
          "name": "",
          "type": "uint256"
        }
      ],
      "name": "markedFunded",
      "outputs": [
        {
          "internalType": "bool",
          "name": "",
          "type": "bool"
        }
      ],
      "stateMutability": "view",
      "type": "function"
    },
    {
      "inputs": [],
      "name": "projectContractAddress",
      "outputs": [
        {
          "internalType": "address",
          "name": "",
          "type": "address"
        }
      ],
      "stateMutability": "view",
      "type": "function"
    },
    {
      "inputs": [
        {
          "internalType": "uint256",
          "name": "",
          "type": "uint256"
        }
      ],
      "name": "totalRaisedPerProject",
      "outputs": [
        {
          "internalType": "uint256",
          "name": "",
          "type": "uint256"
        }
      ],
      "stateMutability": "view",
      "type": "function"
    },
    {
      "stateMutability": "payable",
      "type": "receive"
    },
    {
      "inputs": [
        {
          "internalType": "uint256",
          "name": "projectId",
          "type": "uint256"
        }
      ],
      "name": "donate",
      "outputs": [],
      "stateMutability": "payable",
      "type": "function"
    },
    {
      "inputs": [
        {
          "internalType": "uint256",
          "name": "projectId",
          "type": "uint256"
        }
      ],
      "name": "withdraw",
      "outputs": [],
      "stateMutability": "nonpayable",
      "type": "function"
    },
    {
      "inputs": [
        {
          "internalType": "uint256",
          "name": "projectId",
          "type": "uint256"
        }
      ],
      "name": "getDonorsForProject",
      "outputs": [
        {
          "internalType": "address[]",
          "name": "donors_",
          "type": "address[]"
        },
        {
          "internalType": "uint256[]",
          "name": "amounts_",
          "type": "uint256[]"
        }
      ],
      "stateMutability": "view",
      "type": "function"
    },
    {
      "inputs": [
        {
          "internalType": "address",
          "name": "donor",
          "type": "address"
        },
        {
          "internalType": "uint256",
          "name": "fromId",
          "type": "uint256"
        },
        {
          "internalType": "uint256",
          "name": "toId",
          "type": "uint256"
        }
      ],
      "name": "getProjectsDonatedByUser",
      "outputs": [
        {
          "internalType": "uint256[]",
          "name": "projectIds",
          "type": "uint256[]"
        }
      ],
      "stateMutability": "view",
      "type": "function"
    },
    {
      "inputs": [
        {
          "internalType": "uint256",
          "name": "projectId",
          "type": "uint256"
        }
      ],
      "name": "isFunded",
      "outputs": [
        {
          "internalType": "bool",
          "name": "",
          "type": "bool"
        }
      ],
      "stateMutability": "view",
      "type": "function"
    },
    {
      "inputs": [
        {
          "internalType": "uint256",
          "name": "projectId",
          "type": "uint256"
        },
        {
          "internalType": "address",
          "name": "donor",
          "type": "address"
        }
      ],
      "name": "getDonationAmount",
      "outputs": [
        {
          "internalType": "uint256",
          "name": "",
          "type": "uint256"
        }
      ],
      "stateMutability": "view",
      "type": "function"
    },
    {
      "inputs": [
        {
          "internalType": "address",
          "name": "newAddress",
          "type": "address"
        }
      ],
      "name": "updateProjectContract",
      "outputs": [],
      "stateMutability": "nonpayable",
      "type": "function"
    }
  ],
  "bytecode": "0x60806040523480156200001157600080fd5b50604051620025cd380380620025cd833981810160405281019062000037919062000149565b600073ffffffffffffffffffffffffffffffffffffffff168173ffffffffffffffffffffffffffffffffffffffff161415620000aa576040517f08c379a0000000000000000000000000000000000000000000000000000000008152600401620000a190620001b7565b60405180910390fd5b806000806101000a81548173ffffffffffffffffffffffffffffffffffffffff021916908373ffffffffffffffffffffffffffffffffffffffff16021790555033600160006101000a81548173ffffffffffffffffffffffffffffffffffffffff021916908373ffffffffffffffffffffffffffffffffffffffff1602179055505062000238565b60008151905062000143816200021e565b92915050565b6000602082840312156200015c57600080fd5b60006200016c8482850162000132565b91505092915050565b600062000184601783620001d9565b91507f496e76616c69642070726f6a65637420616464726573730000000000000000006000830152602082019050919050565b60006020820190508181036000830152620001d28162000175565b9050919050565b600082825260208201905092915050565b6000620001f782620001fe565b9050919050565b600073ffffffffffffffffffffffffffffffffffffffff82169050919050565b6200022981620001ea565b81146200023557600080fd5b50565b61238580620002486000396000f3fe6080604052600436106100ab5760003560e01c8063dfd5717911610064578063dfd571791461026e578063e43826d814610297578063e5d5f287146102d4578063f14faf6f14610312578063f53d0a8e1461032e578063ff409ec714610359576100eb565b80631bf77ac7146101265780632e1a7d4d1461016357806382d69d411461018c5780638f8e42f6146101b7578063a0ef4c82146101f4578063a7cdf43b14610231576100eb565b366100eb576040517f08c379a00000000000000000000000000000000000000000000000000000000081526004016100e290611e6b565b60405180910390fd5b6040517f08c379a000000000000000000000000000000000000000000000000000000000815260040161011d90611e6b565b60405180910390fd5b34801561013257600080fd5b5061014d600480360381019061014891906116fa565b610396565b60405161015a9190611e2e565b60405180910390f35b34801561016f57600080fd5b5061018a6004803603810190610185919061182b565b61064c565b005b34801561019857600080fd5b506101a1610ac6565b6040516101ae9190611ddc565b60405180910390f35b3480156101c357600080fd5b506101de60048036038101906101d9919061182b565b610aea565b6040516101eb9190611e50565b60405180910390f35b34801561020057600080fd5b5061021b6004803603810190610216919061182b565b610b14565b604051610228919061204b565b60405180910390f35b34801561023d57600080fd5b506102586004803603810190610253919061182b565b610b2c565b6040516102659190611e50565b60405180910390f35b34801561027a57600080fd5b50610295600480360381019061029091906116d1565b610b4c565b005b3480156102a357600080fd5b506102be60048036038101906102b99190611854565b610c8f565b6040516102cb919061204b565b60405180910390f35b3480156102e057600080fd5b506102fb60048036038101906102f6919061182b565b610cea565b604051610309929190611df7565b60405180910390f35b61032c6004803603810190610327919061182b565b610fdd565b005b34801561033a57600080fd5b506103436115b5565b6040516103509190611ddc565b60405180910390f35b34801561036557600080fd5b50610380600480360381019061037b9190611854565b6115db565b60405161038d919061204b565b60405180910390f35b6060828210156103db576040517f08c379a00000000000000000000000000000000000000000000000000000000081526004016103d290611f4b565b60405180910390fd5b6000600184846103eb91906121d4565b6103f5919061217e565b905060008167ffffffffffffffff811115610439577f4e487b7100000000000000000000000000000000000000000000000000000000600052604160045260246000fd5b6040519080825280602002602001820160405280156104675781602001602082028036833780820191505090505b5090506000808690505b858111610533576005600082815260200190815260200160002060008973ffffffffffffffffffffffffffffffffffffffff1673ffffffffffffffffffffffffffffffffffffffff16815260200190815260200160002060009054906101000a900460ff16156105285780838381518110610515577f4e487b7100000000000000000000000000000000000000000000000000000000600052603260045260246000fd5b6020026020010181815250508160010191505b806001019050610471565b508067ffffffffffffffff811115610574577f4e487b7100000000000000000000000000000000000000000000000000000000600052604160045260246000fd5b6040519080825280602002602001820160405280156105a25781602001602082028036833780820191505090505b50935060005b81811015610641578281815181106105e9577f4e487b7100000000000000000000000000000000000000000000000000000000600052603260045260246000fd5b602002602001015185828151811061062a577f4e487b7100000000000000000000000000000000000000000000000000000000600052603260045260246000fd5b6020026020010181815250508060010190506105a8565b505050509392505050565b600160149054906101000a900460ff161561069c576040517f08c379a00000000000000000000000000000000000000000000000000000000081526004016106939061202b565b60405180910390fd5b60018060146101000a81548160ff02191690831515021790555060008060008060009054906101000a900473ffffffffffffffffffffffffffffffffffffffff1673ffffffffffffffffffffffffffffffffffffffff1663b93a89f7856040518263ffffffff1660e01b8152600401610715919061204b565b60006040518083038186803b15801561072d57600080fd5b505afa158015610741573d6000803e3d6000fd5b505050506040513d6000823e3d601f19601f8201168201806040525081019061076a9190611749565b9750975050505094505050600073ffffffffffffffffffffffffffffffffffffffff168373ffffffffffffffffffffffffffffffffffffffff1614156107e5576040517f08c379a00000000000000000000000000000000000000000000000000000000081526004016107dc90611feb565b60405180910390fd5b8273ffffffffffffffffffffffffffffffffffffffff163373ffffffffffffffffffffffffffffffffffffffff1614610853576040517f08c379a000000000000000000000000000000000000000000000000000000000815260040161084a90611fcb565b60405180910390fd5b81610893576040517f08c379a000000000000000000000000000000000000000000000000000000000815260040161088a90611f8b565b60405180910390fd5b80156108d4576040517f08c379a00000000000000000000000000000000000000000000000000000000081526004016108cb90611f2b565b60405180910390fd5b6006600085815260200190815260200160002060009054906101000a900460ff16610934576040517f08c379a000000000000000000000000000000000000000000000000000000000815260040161092b90611f0b565b60405180910390fd5b6000600260008681526020019081526020016000205490506000811161098f576040517f08c379a000000000000000000000000000000000000000000000000000000000815260040161098690611eab565b60405180910390fd5b600060026000878152602001908152602001600020819055508373ffffffffffffffffffffffffffffffffffffffff16857ff440aec6b52895984d061d622e6edeba6210f7c3e059be920663140c084560d7836040516109ef919061204b565b60405180910390a360008473ffffffffffffffffffffffffffffffffffffffff1682604051610a1d90611dc7565b60006040518083038185875af1925050503d8060008114610a5a576040519150601f19603f3d011682016040523d82523d6000602084013e610a5f565b606091505b5050905080610aa3576040517f08c379a0000000000000000000000000000000000000000000000000000000008152600401610a9a90611fab565b60405180910390fd5b50505050506000600160146101000a81548160ff02191690831515021790555050565b60008054906101000a900473ffffffffffffffffffffffffffffffffffffffff1681565b60006006600083815260200190815260200160002060009054906101000a900460ff169050919050565b60026020528060005260406000206000915090505481565b60066020528060005260406000206000915054906101000a900460ff1681565b600160009054906101000a900473ffffffffffffffffffffffffffffffffffffffff1673ffffffffffffffffffffffffffffffffffffffff163373ffffffffffffffffffffffffffffffffffffffff1614610bdc576040517f08c379a0000000000000000000000000000000000000000000000000000000008152600401610bd39061200b565b60405180910390fd5b600073ffffffffffffffffffffffffffffffffffffffff168173ffffffffffffffffffffffffffffffffffffffff161415610c4c576040517f08c379a0000000000000000000000000000000000000000000000000000000008152600401610c4390611e8b565b60405180910390fd5b806000806101000a81548173ffffffffffffffffffffffffffffffffffffffff021916908373ffffffffffffffffffffffffffffffffffffffff16021790555050565b60006003600084815260200190815260200160002060008373ffffffffffffffffffffffffffffffffffffffff1673ffffffffffffffffffffffffffffffffffffffff16815260200190815260200160002054905092915050565b60608060006004600085815260200190815260200160002090506000818054905090508067ffffffffffffffff811115610d4d577f4e487b7100000000000000000000000000000000000000000000000000000000600052604160045260246000fd5b604051908082528060200260200182016040528015610d7b5781602001602082028036833780820191505090505b5093508067ffffffffffffffff811115610dbe577f4e487b7100000000000000000000000000000000000000000000000000000000600052604160045260246000fd5b604051908082528060200260200182016040528015610dec5781602001602082028036833780820191505090505b50925060005b81811015610fd557828181548110610e33577f4e487b7100000000000000000000000000000000000000000000000000000000600052603260045260246000fd5b9060005260206000200160009054906101000a900473ffffffffffffffffffffffffffffffffffffffff16858281518110610e97577f4e487b7100000000000000000000000000000000000000000000000000000000600052603260045260246000fd5b602002602001019073ffffffffffffffffffffffffffffffffffffffff16908173ffffffffffffffffffffffffffffffffffffffff1681525050600360008781526020019081526020016000206000848381548110610f1f577f4e487b7100000000000000000000000000000000000000000000000000000000600052603260045260246000fd5b9060005260206000200160009054906101000a900473ffffffffffffffffffffffffffffffffffffffff1673ffffffffffffffffffffffffffffffffffffffff1673ffffffffffffffffffffffffffffffffffffffff16815260200190815260200160002054848281518110610fbe577f4e487b7100000000000000000000000000000000000000000000000000000000600052603260045260246000fd5b602002602001018181525050806001019050610df2565b505050915091565b600160149054906101000a900460ff161561102d576040517f08c379a00000000000000000000000000000000000000000000000000000000081526004016110249061202b565b60405180910390fd5b60018060146101000a81548160ff0219169083151502179055506000341161108a576040517f08c379a000000000000000000000000000000000000000000000000000000000815260040161108190611ecb565b60405180910390fd5b60008060008060008060009054906101000a900473ffffffffffffffffffffffffffffffffffffffff1673ffffffffffffffffffffffffffffffffffffffff1663b93a89f7876040518263ffffffff1660e01b81526004016110ec919061204b565b60006040518083038186803b15801561110457600080fd5b505afa158015611118573d6000803e3d6000fd5b505050506040513d6000823e3d601f19601f820116820180604052508101906111419190611749565b97509750509650965096505050600073ffffffffffffffffffffffffffffffffffffffff168573ffffffffffffffffffffffffffffffffffffffff1614156111be576040517f08c379a00000000000000000000000000000000000000000000000000000000081526004016111b590611feb565b60405180910390fd5b816111fe576040517f08c379a00000000000000000000000000000000000000000000000000000000081526004016111f590611f8b565b60405180910390fd5b801561123f576040517f08c379a000000000000000000000000000000000000000000000000000000000815260040161123690611eeb565b60405180910390fd5b8473ffffffffffffffffffffffffffffffffffffffff163373ffffffffffffffffffffffffffffffffffffffff1614156112ae576040517f08c379a00000000000000000000000000000000000000000000000000000000081526004016112a590611f6b565b60405180910390fd5b6005600087815260200190815260200160002060003373ffffffffffffffffffffffffffffffffffffffff1673ffffffffffffffffffffffffffffffffffffffff16815260200190815260200160002060009054906101000a900460ff166113ee5760016005600088815260200190815260200160002060003373ffffffffffffffffffffffffffffffffffffffff1673ffffffffffffffffffffffffffffffffffffffff16815260200190815260200160002060006101000a81548160ff02191690831515021790555060046000878152602001908152602001600020339080600181540180825580915050600190039060005260206000200160009091909190916101000a81548173ffffffffffffffffffffffffffffffffffffffff021916908373ffffffffffffffffffffffffffffffffffffffff1602179055505b346003600088815260200190815260200160002060003373ffffffffffffffffffffffffffffffffffffffff1673ffffffffffffffffffffffffffffffffffffffff168152602001908152602001600020600082825461144e919061217e565b9250508190555034600260008881526020019081526020016000206000828254611478919061217e565b925050819055506000600260008881526020019081526020016000205490503373ffffffffffffffffffffffffffffffffffffffff16877f3dbea1b4ce5f95137fdcac9b1d685825c3d70ace830df1ca5a181d3887add41034846040516114e0929190612066565b60405180910390a3600081856114f6919061217e565b90506006600089815260200190815260200160002060009054906101000a900460ff161580156115265750858110155b15611590576001600660008a815260200190815260200160002060006101000a81548160ff021916908315150217905550877f26130d0cd3f6aa101d05e4a4f2ff016fd5b934363d17bdd03ff5dc03ec5934a982604051611587919061204b565b60405180910390a25b505050505050506000600160146101000a81548160ff02191690831515021790555050565b600160009054906101000a900473ffffffffffffffffffffffffffffffffffffffff1681565b6003602052816000526040600020602052806000526040600020600091509150505481565b600061161361160e846120c0565b61208f565b90508281526020810184848401111561162b57600080fd5b611636848285612262565b509392505050565b60008135905061164d816122f3565b92915050565b6000815190506116628161230a565b92915050565b60008151905061167781612321565b92915050565b600082601f83011261168e57600080fd5b815161169e848260208601611600565b91505092915050565b6000813590506116b681612338565b92915050565b6000815190506116cb81612338565b92915050565b6000602082840312156116e357600080fd5b60006116f18482850161163e565b91505092915050565b60008060006060848603121561170f57600080fd5b600061171d8682870161163e565b935050602061172e868287016116a7565b925050604061173f868287016116a7565b9150509250925092565b600080600080600080600080610100898b03121561176657600080fd5b600089015167ffffffffffffffff81111561178057600080fd5b61178c8b828c0161167d565b985050602089015167ffffffffffffffff8111156117a957600080fd5b6117b58b828c0161167d565b97505060406117c68b828c01611653565b96505060606117d78b828c016116bc565b95505060806117e88b828c016116bc565b94505060a06117f98b828c016116bc565b93505060c061180a8b828c01611668565b92505060e061181b8b828c01611668565b9150509295985092959890939650565b60006020828403121561183d57600080fd5b600061184b848285016116a7565b91505092915050565b6000806040838503121561186757600080fd5b6000611875858286016116a7565b92505060206118868582860161163e565b9150509250929050565b600061189c83836118c0565b60208301905092915050565b60006118b48383611da9565b60208301905092915050565b6118c981612208565b82525050565b6118d881612208565b82525050565b60006118e982612110565b6118f38185612140565b93506118fe836120f0565b8060005b8381101561192f5781516119168882611890565b975061192183612126565b925050600181019050611902565b5085935050505092915050565b60006119478261211b565b6119518185612151565b935061195c83612100565b8060005b8381101561198d57815161197488826118a8565b975061197f83612133565b925050600181019050611960565b5085935050505092915050565b6119a38161222c565b82525050565b60006119b6601d8361216d565b91507f55736520646f6e6174652829207769746820612070726f6a65637449640000006000830152602082019050919050565b60006119f6600f8361216d565b91507f496e76616c6964206164647265737300000000000000000000000000000000006000830152602082019050919050565b6000611a3660138361216d565b91507f4e6f7468696e6720746f207769746864726177000000000000000000000000006000830152602082019050919050565b6000611a7660148361216d565b91507f446f6e6174696f6e206d757374206265203e20300000000000000000000000006000830152602082019050919050565b6000611ab660178361216d565b91507f46756e647320616c72656164792077697468647261776e0000000000000000006000830152602082019050919050565b6000611af660218361216d565b91507f46756e64696e67207468726573686f6c64206e6f74207265616368656420796560008301527f74000000000000000000000000000000000000000000000000000000000000006020830152604082019050919050565b6000611b5c60118361216d565b91507f416c72656164792077697468647261776e0000000000000000000000000000006000830152602082019050919050565b6000611b9c600d8361216d565b91507f496e76616c69642072616e6765000000000000000000000000000000000000006000830152602082019050919050565b6000611bdc601b8361216d565b91507f50726f6a656374206f776e65722063616e6e6f7420646f6e61746500000000006000830152602082019050919050565b6000611c1c60158361216d565b91507f50726f6a656374206973206e6f742061637469766500000000000000000000006000830152602082019050919050565b6000611c5c600083612162565b9150600082019050919050565b6000611c7660138361216d565b91507f455448207472616e73666572206661696c6564000000000000000000000000006000830152602082019050919050565b6000611cb6601f8361216d565b91507f4f6e6c792070726f6a656374206f776e65722063616e207769746864726177006000830152602082019050919050565b6000611cf660168361216d565b91507f50726f6a65637420646f6573206e6f74206578697374000000000000000000006000830152602082019050919050565b6000611d3660118361216d565b91507f4e6f742061646d696e6973747261746f720000000000000000000000000000006000830152602082019050919050565b6000611d76601f8361216d565b91507f5265656e7472616e637947756172643a207265656e7472616e742063616c6c006000830152602082019050919050565b611db281612258565b82525050565b611dc181612258565b82525050565b6000611dd282611c4f565b9150819050919050565b6000602082019050611df160008301846118cf565b92915050565b60006040820190508181036000830152611e1181856118de565b90508181036020830152611e25818461193c565b90509392505050565b60006020820190508181036000830152611e48818461193c565b905092915050565b6000602082019050611e65600083018461199a565b92915050565b60006020820190508181036000830152611e84816119a9565b9050919050565b60006020820190508181036000830152611ea4816119e9565b9050919050565b60006020820190508181036000830152611ec481611a29565b9050919050565b60006020820190508181036000830152611ee481611a69565b9050919050565b60006020820190508181036000830152611f0481611aa9565b9050919050565b60006020820190508181036000830152611f2481611ae9565b9050919050565b60006020820190508181036000830152611f4481611b4f565b9050919050565b60006020820190508181036000830152611f6481611b8f565b9050919050565b60006020820190508181036000830152611f8481611bcf565b9050919050565b60006020820190508181036000830152611fa481611c0f565b9050919050565b60006020820190508181036000830152611fc481611c69565b9050919050565b60006020820190508181036000830152611fe481611ca9565b9050919050565b6000602082019050818103600083015261200481611ce9565b9050919050565b6000602082019050818103600083015261202481611d29565b9050919050565b6000602082019050818103600083015261204481611d69565b9050919050565b60006020820190506120606000830184611db8565b92915050565b600060408201905061207b6000830185611db8565b6120886020830184611db8565b9392505050565b6000604051905081810181811067ffffffffffffffff821117156120b6576120b56122c4565b5b8060405250919050565b600067ffffffffffffffff8211156120db576120da6122c4565b5b601f19601f8301169050602081019050919050565b6000819050602082019050919050565b6000819050602082019050919050565b600081519050919050565b600081519050919050565b6000602082019050919050565b6000602082019050919050565b600082825260208201905092915050565b600082825260208201905092915050565b600081905092915050565b600082825260208201905092915050565b600061218982612258565b915061219483612258565b9250827fffffffffffffffffffffffffffffffffffffffffffffffffffffffffffffffff038211156121c9576121c8612295565b5b828201905092915050565b60006121df82612258565b91506121ea83612258565b9250828210156121fd576121fc612295565b5b828203905092915050565b600061221382612238565b9050919050565b600061222582612238565b9050919050565b60008115159050919050565b600073ffffffffffffffffffffffffffffffffffffffff82169050919050565b6000819050919050565b60005b83811015612280578082015181840152602081019050612265565b8381111561228f576000848401525b50505050565b7f4e487b7100000000000000000000000000000000000000000000000000000000600052601160045260246000fd5b7f4e487b7100000000000000000000000000000000000000000000000000000000600052604160045260246000fd5b6122fc81612208565b811461230757600080fd5b50565b6123138161221a565b811461231e57600080fd5b50565b61232a8161222c565b811461233557600080fd5b50565b61234181612258565b811461234c57600080fd5b5056fea26469706673582212201bec21bce44ec2077dd6e3dc3561f6e84a7d1a098174dfd83221631833cd140c64736f6c63430008000033",
  "immutableReferences": {},
  "source": "// SPDX-License-Identifier: MIT\npragma solidity ^0.8.0;\n\n/**\n * @title IProjectContract\n * @dev Interface for calling into Person A's MicroDons (Project) contract.\n *      Person A deploys Project.sol first and provides the address.\n */\ninterface IProjectContract {\n    struct Projet {\n        uint256 id;\n        address payable porteur;\n        string titre;\n        string description;\n        uint256 objectifFinancement;\n        uint256 montantCollecte;\n        bool actif;\n        bool fondsRetires;\n    }\n\n    /// @notice Returns full project details by ID\n    function getDetails(uint256 id) external view returns (\n        string memory titre,\n        string memory description,\n        address payable porteur,\n        uint256 objectifFinancement,\n        uint256 montantCollecte,\n        uint256 deadline,\n        bool actif,\n        bool fondsRetires\n    );\n\n}\n\n/**\n * @title Donation\n * @author Person B\n * @notice Handles all donation logic: accepting ETH, tracking donors,\n *         threshold checking, status flip to Funded, and secure withdrawal.\n * @dev Interacts with MicroDons (Project.sol) deployed by Person A.\n *      ReentrancyGuard pattern is implemented manually to avoid OZ dependency.\n */\ncontract Donation {\n\n    // ─── State ────────────────────────────────────────────────────────────────\n\n    /// @notice Address of Person A's Project contract\n    address public projectContractAddress;\n\n    /// @notice Platform administrator (deployer)\n    address public administrator;\n\n    /// @dev Reentrancy guard flag\n    bool private _locked;\n\n    /// @dev projectId => total ETH raised through this contract\n    mapping(uint256 => uint256) public totalRaisedPerProject;\n\n    /// @dev projectId => donor address => cumulative amount donated\n    mapping(uint256 => mapping(address => uint256)) public donationsBy;\n\n    /// @dev projectId => ordered list of unique donors\n    mapping(uint256 => address[]) private _donors;\n\n    /// @dev projectId => donor => has donated (to avoid duplicate push)\n    mapping(uint256 => mapping(address => bool)) private _hasDonated;\n\n    /// @dev projectId => whether this contract has already marked it funded\n    mapping(uint256 => bool) public markedFunded;\n\n    // ─── Events ───────────────────────────────────────────────────────────────\n\n    /// @notice Emitted when a donation is received\n    event DonationReceived(\n        uint256 indexed projectId,\n        address indexed donor,\n        uint256 amount,\n        uint256 newTotal\n    );\n\n    /// @notice Emitted when the project owner withdraws funds\n    event FundsWithdrawn(\n        uint256 indexed projectId,\n        address indexed recipient,\n        uint256 amount\n    );\n\n    /// @notice Emitted when a project crosses its funding threshold\n    event ProjectFunded(\n        uint256 indexed projectId,\n        uint256 totalRaised\n    );\n\n    /// @notice Emitted when a donor is refunded (project failed)\n    event DonorRefunded(\n        uint256 indexed projectId,\n        address indexed donor,\n        uint256 amount\n    );\n\n    // ─── Modifiers ────────────────────────────────────────────────────────────\n\n    /// @dev Simple reentrancy guard – checks-effects-interactions pattern\n    modifier nonReentrant() {\n        require(!_locked, \"ReentrancyGuard: reentrant call\");\n        _locked = true;\n        _;\n        _locked = false;\n    }\n\n    modifier onlyAdmin() {\n        require(msg.sender == administrator, \"Not administrator\");\n        _;\n    }\n\n    // ─── Constructor ──────────────────────────────────────────────────────────\n\n    /**\n     * @notice Deploy with the address of Person A's already-deployed Project contract.\n     * @param _projectContractAddress Address of MicroDons (Project.sol)\n     */\n    constructor(address _projectContractAddress) {\n        require(_projectContractAddress != address(0), \"Invalid project address\");\n        projectContractAddress = _projectContractAddress;\n        administrator = msg.sender;\n    }\n\n    // ─── Core Functions ───────────────────────────────────────────────────────\n\n    /**\n     * @notice Donate ETH to a specific project.\n     * @dev Checks project is active, records donation, checks funding threshold,\n     *      and emits events. Uses nonReentrant for safety.\n     * @param projectId The ID of the project to donate to\n     */\n    function donate(uint256 projectId) external payable nonReentrant {\n        require(msg.value > 0, \"Donation must be > 0\");\n\n        // Read project state from Person A's contract via getDetails()\n        (\n            ,                        // titre  (ignored)\n            ,                        // description (ignored)\n            address payable porteur,\n            uint256 objectif,\n            uint256 montantCollecte,\n            ,                        // deadline (ignored)\n            bool actif,\n            bool fondsRetires\n        ) = IProjectContract(projectContractAddress).getDetails(projectId);\n\n        require(porteur != address(0), \"Project does not exist\");\n        require(actif, \"Project is not active\");\n        require(!fondsRetires, \"Funds already withdrawn\");\n        require(msg.sender != porteur, \"Project owner cannot donate\");\n\n        // ── Effects ──\n        if (!_hasDonated[projectId][msg.sender]) {\n            _hasDonated[projectId][msg.sender] = true;\n            _donors[projectId].push(msg.sender);\n        }\n\n        donationsBy[projectId][msg.sender] += msg.value;\n        totalRaisedPerProject[projectId] += msg.value;\n\n        uint256 newTotal = totalRaisedPerProject[projectId];\n\n        emit DonationReceived(projectId, msg.sender, msg.value, newTotal);\n\n        // ── Threshold check ──\n        // montantCollecte is from Project.sol storage; we add our tracked amount\n        uint256 combinedTotal = montantCollecte + newTotal;\n        if (!markedFunded[projectId] && combinedTotal >= objectif) {\n            markedFunded[projectId] = true;\n            emit ProjectFunded(projectId, combinedTotal);\n        }\n    }\n\n    /**\n     * @notice Withdraw collected funds for a project. Only callable by the project owner.\n     * @dev Uses Checks-Effects-Interactions. Sends all ETH held for this project.\n     * @param projectId The project whose funds to withdraw\n     */\n    function withdraw(uint256 projectId) external nonReentrant {\n        (\n            ,                        // titre (ignored)\n            ,                        // description (ignored)\n            address payable porteur,\n            ,                        // objectif (ignored)\n            ,                        // montantCollecte (ignored)\n            ,                        // deadline (ignored)\n            bool actif,\n            bool fondsRetires\n        ) = IProjectContract(projectContractAddress).getDetails(projectId);\n\n        require(porteur != address(0), \"Project does not exist\");\n        require(msg.sender == porteur, \"Only project owner can withdraw\");\n        require(actif, \"Project is not active\");\n        require(!fondsRetires, \"Already withdrawn\");\n        require(markedFunded[projectId], \"Funding threshold not reached yet\");\n\n        uint256 amount = totalRaisedPerProject[projectId];\n        require(amount > 0, \"Nothing to withdraw\");\n\n        // ── Effects ──\n        totalRaisedPerProject[projectId] = 0;\n\n        emit FundsWithdrawn(projectId, porteur, amount);\n\n        // ── Interaction ──\n        (bool success, ) = porteur.call{value: amount}(\"\");\n        require(success, \"ETH transfer failed\");\n    }\n\n    /**\n     * @notice Returns donor history for a project (address + amount pairs).\n     * @param projectId The project to query\n     * @return donors_ Array of donor addresses\n     * @return amounts_ Corresponding donation amounts\n     */\n    function getDonorsForProject(uint256 projectId)\n        external\n        view\n        returns (address[] memory donors_, uint256[] memory amounts_)\n    {\n        address[] storage d = _donors[projectId];\n        uint256 len = d.length;\n        donors_ = new address[](len);\n        amounts_ = new uint256[](len);\n        for (uint256 i = 0; i < len; ) {\n            donors_[i] = d[i];\n            amounts_[i] = donationsBy[projectId][d[i]];\n            unchecked { ++i; }\n        }\n    }\n\n    /**\n     * @notice Returns all project IDs that a given donor has contributed to.\n     * @dev Iterates over provided project ID range – caller supplies bounds\n     *      to avoid unbounded loops. Gas-safe for off-chain use.\n     * @param donor The donor address to look up\n     * @param fromId Start of project ID range (inclusive)\n     * @param toId   End of project ID range (inclusive)\n     * @return projectIds Array of project IDs the donor contributed to\n     */\n    function getProjectsDonatedByUser(\n        address donor,\n        uint256 fromId,\n        uint256 toId\n    ) external view returns (uint256[] memory projectIds) {\n        require(toId >= fromId, \"Invalid range\");\n        uint256 range = toId - fromId + 1;\n        uint256[] memory temp = new uint256[](range);\n        uint256 count;\n        for (uint256 i = fromId; i <= toId; ) {\n            if (_hasDonated[i][donor]) {\n                temp[count] = i;\n                unchecked { ++count; }\n            }\n            unchecked { ++i; }\n        }\n        projectIds = new uint256[](count);\n        for (uint256 j = 0; j < count; ) {\n            projectIds[j] = temp[j];\n            unchecked { ++j; }\n        }\n    }\n\n    /**\n     * @notice Returns true if a project has reached its funding goal (via this contract).\n     * @param projectId The project to check\n     */\n    function isFunded(uint256 projectId) external view returns (bool) {\n        return markedFunded[projectId];\n    }\n\n    /**\n     * @notice Get the amount a specific donor gave to a specific project.\n     * @param projectId The project ID\n     * @param donor The donor address\n     */\n    function getDonationAmount(uint256 projectId, address donor)\n        external\n        view\n        returns (uint256)\n    {\n        return donationsBy[projectId][donor];\n    }\n\n    /**\n     * @notice Admin-only function to update the project contract address if redeployed.\n     * @param newAddress New address of the Project contract\n     */\n    function updateProjectContract(address newAddress) external onlyAdmin {\n        require(newAddress != address(0), \"Invalid address\");\n        projectContractAddress = newAddress;\n    }\n\n    /// @notice Reject plain ETH transfers (no projectId)\n    receive() external payable {\n        revert(\"Use donate() with a projectId\");\n    }\n\n    fallback() external payable {\n        revert(\"Use donate() with a projectId\");\n    }\n}\n",
  "sourcePath": "/home/yagamine/decentralized/Decentralized-Micro-Donations-Platform-for-students-projects-/app/contracts/Donation.sol",
  "compiler": {
    "name": "solc",
    "version": "0.8.0+commit.c7dfd78e.Emscripten.clang"
  },
  "schemaVersion": "3.4.16",
  "updatedAt": "2026-04-26T16:26:42.754Z",
  "devdoc": {
    "author": "Person B",
    "details": "Interacts with MicroDons (Project.sol) deployed by Person A.      ReentrancyGuard pattern is implemented manually to avoid OZ dependency.",
    "kind": "dev",
    "methods": {
      "constructor": {
        "params": {
          "_projectContractAddress": "Address of MicroDons (Project.sol)"
        }
      },
      "donate(uint256)": {
        "details": "Checks project is active, records donation, checks funding threshold,      and emits events. Uses nonReentrant for safety.",
        "params": {
          "projectId": "The ID of the project to donate to"
        }
      },
      "getDonationAmount(uint256,address)": {
        "params": {
          "donor": "The donor address",
          "projectId": "The project ID"
        }
      },
      "getDonorsForProject(uint256)": {
        "params": {
          "projectId": "The project to query"
        },
        "returns": {
          "amounts_": "Corresponding donation amounts",
          "donors_": "Array of donor addresses"
        }
      },
      "getProjectsDonatedByUser(address,uint256,uint256)": {
        "details": "Iterates over provided project ID range – caller supplies bounds      to avoid unbounded loops. Gas-safe for off-chain use.",
        "params": {
          "donor": "The donor address to look up",
          "fromId": "Start of project ID range (inclusive)",
          "toId": "End of project ID range (inclusive)"
        },
        "returns": {
          "projectIds": "Array of project IDs the donor contributed to"
        }
      },
      "isFunded(uint256)": {
        "params": {
          "projectId": "The project to check"
        }
      },
      "updateProjectContract(address)": {
        "params": {
          "newAddress": "New address of the Project contract"
        }
      },
      "withdraw(uint256)": {
        "details": "Uses Checks-Effects-Interactions. Sends all ETH held for this project.",
        "params": {
          "projectId": "The project whose funds to withdraw"
        }
      }
    },
    "stateVariables": {
      "_donors": {
        "details": "projectId => ordered list of unique donors"
      },
      "_hasDonated": {
        "details": "projectId => donor => has donated (to avoid duplicate push)"
      },
      "_locked": {
        "details": "Reentrancy guard flag"
      },
      "donationsBy": {
        "details": "projectId => donor address => cumulative amount donated"
      },
      "markedFunded": {
        "details": "projectId => whether this contract has already marked it funded"
      },
      "totalRaisedPerProject": {
        "details": "projectId => total ETH raised through this contract"
      }
    },
    "title": "Donation",
    "version": 1
  },
  "userdoc": {
    "events": {
      "DonationReceived(uint256,address,uint256,uint256)": {
        "notice": "Emitted when a donation is received"
      },
      "DonorRefunded(uint256,address,uint256)": {
        "notice": "Emitted when a donor is refunded (project failed)"
      },
      "FundsWithdrawn(uint256,address,uint256)": {
        "notice": "Emitted when the project owner withdraws funds"
      },
      "ProjectFunded(uint256,uint256)": {
        "notice": "Emitted when a project crosses its funding threshold"
      }
    },
    "kind": "user",
    "methods": {
      "administrator()": {
        "notice": "Platform administrator (deployer)"
      },
      "constructor": {
        "notice": "Deploy with the address of Person A's already-deployed Project contract."
      },
      "donate(uint256)": {
        "notice": "Donate ETH to a specific project."
      },
      "getDonationAmount(uint256,address)": {
        "notice": "Get the amount a specific donor gave to a specific project."
      },
      "getDonorsForProject(uint256)": {
        "notice": "Returns donor history for a project (address + amount pairs)."
      },
      "getProjectsDonatedByUser(address,uint256,uint256)": {
        "notice": "Returns all project IDs that a given donor has contributed to."
      },
      "isFunded(uint256)": {
        "notice": "Returns true if a project has reached its funding goal (via this contract)."
      },
      "projectContractAddress()": {
        "notice": "Address of Person A's Project contract"
      },
      "updateProjectContract(address)": {
        "notice": "Admin-only function to update the project contract address if redeployed."
      },
      "withdraw(uint256)": {
        "notice": "Withdraw collected funds for a project. Only callable by the project owner."
      }
    },
    "notice": "Handles all donation logic: accepting ETH, tracking donors,         threshold checking, status flip to Funded, and secure withdrawal.",
    "version": 1
  }
}