{
  "contractName": "Project",
  "abi": [
    {
      "inputs": [],
      "stateMutability": "nonpayable",
      "type": "constructor"
    },
    {
      "anonymous": false,
      "inputs": [
        {
          "indexed": true,
          "internalType": "uint256",
          "name": "id",
          "type": "uint256"
        },
        {
          "indexed": true,
          "internalType": "address",
          "name": "porteur",
          "type": "address"
        },
        {
          "indexed": false,
          "internalType": "string",
          "name": "titre",
          "type": "string"
        }
      ],
      "name": "ProjetCree",
      "type": "event"
    },
    {
      "inputs": [],
      "name": "administrator",
      "outputs": [
        {
          "internalType": "address",
          "name": "",
          "type": "address"
        }
      ],
      "stateMutability": "view",
      "type": "function"
    },
    {
      "inputs": [
        {
          "internalType": "uint256",
          "name": "",
          "type": "uint256"
        }
      ],
      "name": "projets",
      "outputs": [
        {
          "internalType": "uint256",
          "name": "id",
          "type": "uint256"
        },
        {
          "internalType": "address payable",
          "name": "porteur",
          "type": "address"
        },
        {
          "internalType": "string",
          "name": "titre",
          "type": "string"
        },
        {
          "internalType": "string",
          "name": "description",
          "type": "string"
        },
        {
          "internalType": "uint256",
          "name": "objectifFinancement",
          "type": "uint256"
        },
        {
          "internalType": "uint256",
          "name": "montantCollecte",
          "type": "uint256"
        },
        {
          "internalType": "bool",
          "name": "actif",
          "type": "bool"
        },
        {
          "internalType": "bool",
          "name": "fondsRetires",
          "type": "bool"
        },
        {
          "internalType": "uint256",
          "name": "deadline",
          "type": "uint256"
        }
      ],
      "stateMutability": "view",
      "type": "function"
    },
    {
      "inputs": [
        {
          "internalType": "string",
          "name": "titre",
          "type": "string"
        },
        {
          "internalType": "string",
          "name": "description",
          "type": "string"
        },
        {
          "internalType": "uint256",
          "name": "objectif",
          "type": "uint256"
        }
      ],
      "name": "creerProjet",
      "outputs": [
        {
          "internalType": "uint256",
          "name": "",
          "type": "uint256"
        }
      ],
      "stateMutability": "nonpayable",
      "type": "function"
    },
    {
      "inputs": [
        {
          "internalType": "uint256",
          "name": "id",
          "type": "uint256"
        }
      ],
      "name": "getDetails",
      "outputs": [
        {
          "internalType": "string",
          "name": "",
          "type": "string"
        },
        {
          "internalType": "string",
          "name": "",
          "type": "string"
        },
        {
          "internalType": "address payable",
          "name": "",
          "type": "address"
        },
        {
          "internalType": "uint256",
          "name": "",
          "type": "uint256"
        },
        {
          "internalType": "uint256",
          "name": "",
          "type": "uint256"
        },
        {
          "internalType": "uint256",
          "name": "",
          "type": "uint256"
        },
        {
          "internalType": "bool",
          "name": "",
          "type": "bool"
        },
        {
          "internalType": "bool",
          "name": "",
          "type": "bool"
        }
      ],
      "stateMutability": "view",
      "type": "function"
    },
    {
      "inputs": [
        {
          "internalType": "uint256",
          "name": "id",
          "type": "uint256"
        }
      ],
      "name": "getdonors",
      "outputs": [
        {
          "internalType": "address[]",
          "name": "",
          "type": "address[]"
        }
      ],
      "stateMutability": "view",
      "type": "function"
    },
    {
      "inputs": [
        {
          "internalType": "uint256",
          "name": "id",
          "type": "uint256"
        }
      ],
      "name": "getStatut",
      "outputs": [
        {
          "internalType": "string",
          "name": "",
          "type": "string"
        }
      ],
      "stateMutability": "view",
      "type": "function"
    }
  ],
  "bytecode": "0x608060405234801561001057600080fd5b5033600260006101000a81548173ffffffffffffffffffffffffffffffffffffffff021916908373ffffffffffffffffffffffffffffffffffffffff16021790555061132e806100616000396000f3fe608060405234801561001057600080fd5b50600436106100625760003560e01c806309cc22d51461006757806398cf37ab14610097578063a10f7fde146100c7578063b93a89f7146100f7578063e190550d1461012e578063f53d0a8e14610166575b600080fd5b610081600480360381019061007c9190610c7b565b610184565b60405161008e9190610eec565b60405180910390f35b6100b160048036038101906100ac9190610c7b565b610317565b6040516100be9190610ea6565b60405180910390f35b6100e160048036038101906100dc9190610bf2565b610409565b6040516100ee9190610ffa565b60405180910390f35b610111600480360381019061010c9190610c7b565b61072b565b604051610125989796959493929190610f0e565b60405180910390f35b61014860048036038101906101439190610c7b565b610932565b60405161015d99989796959493929190611015565b60405180910390f35b61016e610aca565b60405161017b9190610e8b565b60405180910390f35b606060008211801561019857506003548211155b6101d7576040517f08c379a00000000000000000000000000000000000000000000000000000000081526004016101ce90610f9a565b60405180910390fd5b600080600084815260200190815260200160002090508060060160009054906101000a900460ff16156102d8578060040154816005015410610251576040518060400160405280600881526020017f46696e616e63c3a9000000000000000000000000000000000000000000000000815250915050610312565b4281600701541161029a576040518060400160405280600781526020017f4578706972c3a900000000000000000000000000000000000000000000000000815250915050610312565b6040518060400160405280600881526020017f456e20636f757273000000000000000000000000000000000000000000000000815250915050610312565b6040518060400160405280600881526020017f5465726d696ec3a90000000000000000000000000000000000000000000000008152509150505b919050565b606060008211801561032b57506003548211155b61036a576040517f08c379a000000000000000000000000000000000000000000000000000000000815260040161036190610f9a565b60405180910390fd5b600160008381526020019081526020016000208054806020026020016040519081016040528092919081815260200182805480156103fd57602002820191906000526020600020905b8160009054906101000a900473ffffffffffffffffffffffffffffffffffffffff1673ffffffffffffffffffffffffffffffffffffffff16815260200190600101908083116103b3575b50505050509050919050565b6000808686905011610450576040517f08c379a000000000000000000000000000000000000000000000000000000000815260040161044790610fba565b60405180910390fd5b60008211610493576040517f08c379a000000000000000000000000000000000000000000000000000000000815260040161048a90610fda565b60405180910390fd5b600360008154809291906104a690611229565b9190505550600060035490506040518061012001604052808281526020013373ffffffffffffffffffffffffffffffffffffffff16815260200188888080601f016020809104026020016040519081016040528093929190818152602001838380828437600081840152601f19601f82011690508083019250505050505050815260200186868080601f016020809104026020016040519081016040528093929190818152602001838380828437600081840152601f19601f8201169050808301925050505050505081526020018481526020016000815260200160011515815260200160001515815260200162278d00426105a29190611105565b8152506000808381526020019081526020016000206000820151816000015560208201518160010160006101000a81548173ffffffffffffffffffffffffffffffffffffffff021916908373ffffffffffffffffffffffffffffffffffffffff1602179055506040820151816002019080519060200190610624929190610af0565b506060820151816003019080519060200190610641929190610af0565b506080820151816004015560a0820151816005015560c08201518160060160006101000a81548160ff02191690831515021790555060e08201518160060160016101000a81548160ff021916908315150217905550610100820151816007015590505060048190806001815401808255809150506001900390600052602060002001600090919091909150553373ffffffffffffffffffffffffffffffffffffffff16817f61e0dc7567c62d5b43fca4395edf51b9cfe27cf3f49f1973475739f1b0a6b7148989604051610716929190610ec8565b60405180910390a38091505095945050505050565b60608060008060008060008060008911801561074957506003548911155b610788576040517f08c379a000000000000000000000000000000000000000000000000000000000815260040161077f90610f9a565b60405180910390fd5b60008060008b8152602001908152602001600020905080600201816003018260010160009054906101000a900473ffffffffffffffffffffffffffffffffffffffff168360040154846005015485600701548660060160009054906101000a900460ff168760060160019054906101000a900460ff1687805461080a906111f7565b80601f0160208091040260200160405190810160405280929190818152602001828054610836906111f7565b80156108835780601f1061085857610100808354040283529160200191610883565b820191906000526020600020905b81548152906001019060200180831161086657829003601f168201915b50505050509750868054610896906111f7565b80601f01602080910402602001604051908101604052809291908181526020018280546108c2906111f7565b801561090f5780601f106108e45761010080835404028352916020019161090f565b820191906000526020600020905b8154815290600101906020018083116108f257829003601f168201915b505050505096509850985098509850985098509850985050919395975091939597565b60006020528060005260406000206000915090508060000154908060010160009054906101000a900473ffffffffffffffffffffffffffffffffffffffff1690806002018054610981906111f7565b80601f01602080910402602001604051908101604052809291908181526020018280546109ad906111f7565b80156109fa5780601f106109cf576101008083540402835291602001916109fa565b820191906000526020600020905b8154815290600101906020018083116109dd57829003601f168201915b505050505090806003018054610a0f906111f7565b80601f0160208091040260200160405190810160405280929190818152602001828054610a3b906111f7565b8015610a885780601f10610a5d57610100808354040283529160200191610a88565b820191906000526020600020905b815481529060010190602001808311610a6b57829003601f168201915b5050505050908060040154908060050154908060060160009054906101000a900460ff16908060060160019054906101000a900460ff16908060070154905089565b600260009054906101000a900473ffffffffffffffffffffffffffffffffffffffff1681565b828054610afc906111f7565b90600052602060002090601f016020900481019282610b1e5760008555610b65565b82601f10610b3757805160ff1916838001178555610b65565b82800160010185558215610b65579182015b82811115610b64578251825591602001919060010190610b49565b5b509050610b729190610b76565b5090565b5b80821115610b8f576000816000905550600101610b77565b5090565b60008083601f840112610ba557600080fd5b8235905067ffffffffffffffff811115610bbe57600080fd5b602083019150836001820283011115610bd657600080fd5b9250929050565b600081359050610bec816112e1565b92915050565b600080600080600060608688031215610c0a57600080fd5b600086013567ffffffffffffffff811115610c2457600080fd5b610c3088828901610b93565b9550955050602086013567ffffffffffffffff811115610c4f57600080fd5b610c5b88828901610b93565b93509350506040610c6e88828901610bdd565b9150509295509295909350565b600060208284031215610c8d57600080fd5b6000610c9b84828501610bdd565b91505092915050565b6000610cb08383610ccb565b60208301905092915050565b610cc58161116d565b82525050565b610cd48161115b565b82525050565b610ce38161115b565b82525050565b6000610cf4826110c0565b610cfe81856110e3565b9350610d09836110b0565b8060005b83811015610d3a578151610d218882610ca4565b9750610d2c836110d6565b925050600181019050610d0d565b5085935050505092915050565b610d508161117f565b82525050565b6000610d6283856110f4565b9350610d6f8385846111b5565b610d78836112d0565b840190509392505050565b6000610d8e826110cb565b610d9881856110f4565b9350610da88185602086016111c4565b610db1816112d0565b840191505092915050565b6000610dc96011836110f4565b91507f50726f6a657420696e6578697374616e740000000000000000000000000000006000830152602082019050919050565b6000610e096011836110f4565b91507f5469747265206f626c696761746f6972650000000000000000000000000000006000830152602082019050919050565b6000610e496016836110f4565b91507f4f626a656374696620646f69742065747265203e2030000000000000000000006000830152602082019050919050565b610e85816111ab565b82525050565b6000602082019050610ea06000830184610cda565b92915050565b60006020820190508181036000830152610ec08184610ce9565b905092915050565b60006020820190508181036000830152610ee3818486610d56565b90509392505050565b60006020820190508181036000830152610f068184610d83565b905092915050565b6000610100820190508181036000830152610f29818b610d83565b90508181036020830152610f3d818a610d83565b9050610f4c6040830189610cbc565b610f596060830188610e7c565b610f666080830187610e7c565b610f7360a0830186610e7c565b610f8060c0830185610d47565b610f8d60e0830184610d47565b9998505050505050505050565b60006020820190508181036000830152610fb381610dbc565b9050919050565b60006020820190508181036000830152610fd381610dfc565b9050919050565b60006020820190508181036000830152610ff381610e3c565b9050919050565b600060208201905061100f6000830184610e7c565b92915050565b60006101208201905061102b600083018c610e7c565b611038602083018b610cbc565b818103604083015261104a818a610d83565b9050818103606083015261105e8189610d83565b905061106d6080830188610e7c565b61107a60a0830187610e7c565b61108760c0830186610d47565b61109460e0830185610d47565b6110a2610100830184610e7c565b9a9950505050505050505050565b6000819050602082019050919050565b600081519050919050565b600081519050919050565b6000602082019050919050565b600082825260208201905092915050565b600082825260208201905092915050565b6000611110826111ab565b915061111b836111ab565b9250827fffffffffffffffffffffffffffffffffffffffffffffffffffffffffffffffff038211156111505761114f611272565b5b828201905092915050565b60006111668261118b565b9050919050565b60006111788261118b565b9050919050565b60008115159050919050565b600073ffffffffffffffffffffffffffffffffffffffff82169050919050565b6000819050919050565b82818337600083830152505050565b60005b838110156111e25780820151818401526020810190506111c7565b838111156111f1576000848401525b50505050565b6000600282049050600182168061120f57607f821691505b60208210811415611223576112226112a1565b5b50919050565b6000611234826111ab565b91507fffffffffffffffffffffffffffffffffffffffffffffffffffffffffffffffff82141561126757611266611272565b5b600182019050919050565b7f4e487b7100000000000000000000000000000000000000000000000000000000600052601160045260246000fd5b7f4e487b7100000000000000000000000000000000000000000000000000000000600052602260045260246000fd5b6000601f19601f8301169050919050565b6112ea816111ab565b81146112f557600080fd5b5056fea264697066735822122029c46f3d5af8877b3bc12c7ba7075e490e032efbae87c28c3c93fa2d0ff7203b64736f6c63430008000033",
  "immutableReferences": {},
  "source": "// SPDX-License-Identifier: MIT\npragma solidity ^0.8.0;\n\ncontract Project {\n\n    struct Projet {\n        uint256 id;\n        address payable porteur;\n        string  titre;\n        string  description;\n        uint256 objectifFinancement;\n        uint256 montantCollecte;\n        bool actif;\n        bool fondsRetires;\n        uint256 deadline;\n    }\n\n\n    mapping(uint256 => Projet) public projets;\n    mapping(uint256 => address[]) private _donors;\n\n    address public administrator;\n    uint256 private _compteurId;\n    uint256[] private _tousLesIds;\n\n    event ProjetCree(uint256 indexed id, address indexed porteur, string titre);\n\n\n    constructor() {\n        administrator = msg.sender;\n    }\n\n    modifier seulAdministrateur() {\n        require(msg.sender == administrator, \"Acces refuse\");\n        _;\n    }\n\n    function creerProjet(\n        string calldata titre,\n        string calldata description,\n        uint256 objectif\n    ) external returns (uint256) {\n\n        require(bytes(titre).length > 0, \"Titre obligatoire\");\n        require(objectif > 0, \"Objectif doit etre > 0\");\n\n        _compteurId++;\n        uint256 newId = _compteurId;\n\n\n        projets[newId] = Projet({\n            id:                  newId,\n            porteur:             payable(msg.sender),\n            titre:               titre,\n            description:         description,\n            objectifFinancement: objectif,\n            montantCollecte:     0,\n            actif:               true,\n            fondsRetires:        false,\n            deadline: block.timestamp + 30 days\n        });\n\n        _tousLesIds.push(newId);\n        emit ProjetCree(newId, msg.sender, titre);\n        return newId;\n    }\n    \n    function getDetails(uint256 id) external view returns (\n        string memory  ,\n        string memory ,\n        address payable  ,\n        uint256 ,\n        uint256 ,\n        uint256 ,\n        bool ,\n        bool \n    )\n        { require(id > 0 && id <= _compteurId, \"Projet inexistant\");\n        Projet storage projet = projets[id];\n        return (projet.titre, projet.description, projet.porteur , projet.objectifFinancement, projet.montantCollecte, projet.deadline, projet.actif, projet.fondsRetires);\n        }\n\n    function getdonors(uint256 id) external view returns (address[] memory) {\n        require(id > 0 && id <= _compteurId, \"Projet inexistant\");\n        return _donors[id];\n        }\n        \n    function getStatut(uint256 id) external view returns (string memory) {\n        require(id > 0 && id <= _compteurId, \"Projet inexistant\");\n        Projet storage projet = projets[id];\n        if (projet.actif) {\n            if (projet.montantCollecte >= projet.objectifFinancement) {\n                return unicode\"Financé\";\n            } else if (projet.deadline <= block.timestamp) {\n                return unicode\"Expiré\";\n            } else {\n                return \"En cours\";\n            }\n        } else {\n            return unicode\"Terminé\";\n        }\n    }     \n}",
  "sourcePath": "/home/yagamine/decentralized/Decentralized-Micro-Donations-Platform-for-students-projects-/app/contracts/Project.sol",
  "compiler": {
    "name": "solc",
    "version": "0.8.0+commit.c7dfd78e.Emscripten.clang"
  },
  "schemaVersion": "3.4.16",
  "updatedAt": "2026-04-26T16:26:42.766Z",
  "devdoc": {
    "kind": "dev",
    "methods": {},
    "version": 1
  },
  "userdoc": {
    "kind": "user",
    "methods": {},
    "version": 1
  }
}